{
  "contractName": "SaitoToken",
  "abi": [
    {
      "inputs": [
        {
          "internalType": "string",
          "name": "name_",
          "type": "string"
        },
        {
          "internalType": "string",
          "name": "symbol_",
          "type": "string"
        }
      ],
      "stateMutability": "nonpayable",
      "type": "constructor"
    },
    {
      "anonymous": false,
      "inputs": [
        {
          "indexed": true,
          "internalType": "address",
          "name": "owner",
          "type": "address"
        },
        {
          "indexed": true,
          "internalType": "address",
          "name": "spender",
          "type": "address"
        },
        {
          "indexed": false,
          "internalType": "uint256",
          "name": "value",
          "type": "uint256"
        }
      ],
      "name": "Approval",
      "type": "event"
    },
    {
      "anonymous": false,
      "inputs": [
        {
          "indexed": false,
          "internalType": "address",
          "name": "from",
          "type": "address"
        },
        {
          "indexed": false,
          "internalType": "uint256",
          "name": "amount",
          "type": "uint256"
        },
        {
          "indexed": false,
          "internalType": "bytes",
          "name": "data",
          "type": "bytes"
        }
      ],
      "name": "Burned",
      "type": "event"
    },
    {
      "anonymous": false,
      "inputs": [
        {
          "indexed": false,
          "internalType": "address",
          "name": "receiver",
          "type": "address"
        },
        {
          "indexed": false,
          "internalType": "uint256",
          "name": "amount",
          "type": "uint256"
        }
      ],
      "name": "Minted",
      "type": "event"
    },
    {
      "anonymous": false,
      "inputs": [
        {
          "indexed": true,
          "internalType": "address",
          "name": "from",
          "type": "address"
        },
        {
          "indexed": true,
          "internalType": "address",
          "name": "to",
          "type": "address"
        },
        {
          "indexed": false,
          "internalType": "uint256",
          "name": "value",
          "type": "uint256"
        }
      ],
      "name": "Transfer",
      "type": "event"
    },
    {
      "inputs": [
        {
          "internalType": "address",
          "name": "owner",
          "type": "address"
        },
        {
          "internalType": "address",
          "name": "spender",
          "type": "address"
        }
      ],
      "name": "allowance",
      "outputs": [
        {
          "internalType": "uint256",
          "name": "",
          "type": "uint256"
        }
      ],
      "stateMutability": "view",
      "type": "function"
    },
    {
      "inputs": [
        {
          "internalType": "address",
          "name": "spender",
          "type": "address"
        },
        {
          "internalType": "uint256",
          "name": "amount",
          "type": "uint256"
        }
      ],
      "name": "approve",
      "outputs": [
        {
          "internalType": "bool",
          "name": "",
          "type": "bool"
        }
      ],
      "stateMutability": "nonpayable",
      "type": "function"
    },
    {
      "inputs": [
        {
          "internalType": "address",
          "name": "account",
          "type": "address"
        }
      ],
      "name": "balanceOf",
      "outputs": [
        {
          "internalType": "uint256",
          "name": "",
          "type": "uint256"
        }
      ],
      "stateMutability": "view",
      "type": "function"
    },
    {
      "inputs": [],
      "name": "decimals",
      "outputs": [
        {
          "internalType": "uint8",
          "name": "",
          "type": "uint8"
        }
      ],
      "stateMutability": "view",
      "type": "function"
    },
    {
      "inputs": [
        {
          "internalType": "address",
          "name": "spender",
          "type": "address"
        },
        {
          "internalType": "uint256",
          "name": "subtractedValue",
          "type": "uint256"
        }
      ],
      "name": "decreaseAllowance",
      "outputs": [
        {
          "internalType": "bool",
          "name": "",
          "type": "bool"
        }
      ],
      "stateMutability": "nonpayable",
      "type": "function"
    },
    {
      "inputs": [
        {
          "internalType": "address",
          "name": "spender",
          "type": "address"
        },
        {
          "internalType": "uint256",
          "name": "addedValue",
          "type": "uint256"
        }
      ],
      "name": "increaseAllowance",
      "outputs": [
        {
          "internalType": "bool",
          "name": "",
          "type": "bool"
        }
      ],
      "stateMutability": "nonpayable",
      "type": "function"
    },
    {
      "inputs": [],
      "name": "mintingNonce",
      "outputs": [
        {
          "internalType": "uint32",
          "name": "",
          "type": "uint32"
        }
      ],
      "stateMutability": "view",
      "type": "function"
    },
    {
      "inputs": [],
      "name": "name",
      "outputs": [
        {
          "internalType": "string",
          "name": "",
          "type": "string"
        }
      ],
      "stateMutability": "view",
      "type": "function"
    },
    {
      "inputs": [],
      "name": "symbol",
      "outputs": [
        {
          "internalType": "string",
          "name": "",
          "type": "string"
        }
      ],
      "stateMutability": "view",
      "type": "function"
    },
    {
      "inputs": [],
      "name": "totalSupply",
      "outputs": [
        {
          "internalType": "uint256",
          "name": "",
          "type": "uint256"
        }
      ],
      "stateMutability": "view",
      "type": "function"
    },
    {
      "inputs": [
        {
          "internalType": "address",
          "name": "recipient",
          "type": "address"
        },
        {
          "internalType": "uint256",
          "name": "amount",
          "type": "uint256"
        }
      ],
      "name": "transfer",
      "outputs": [
        {
          "internalType": "bool",
          "name": "",
          "type": "bool"
        }
      ],
      "stateMutability": "nonpayable",
      "type": "function"
    },
    {
      "inputs": [
        {
          "internalType": "address",
          "name": "sender",
          "type": "address"
        },
        {
          "internalType": "address",
          "name": "recipient",
          "type": "address"
        },
        {
          "internalType": "uint256",
          "name": "amount",
          "type": "uint256"
        }
      ],
      "name": "transferFrom",
      "outputs": [
        {
          "internalType": "bool",
          "name": "",
          "type": "bool"
        }
      ],
      "stateMutability": "nonpayable",
      "type": "function"
    },
    {
      "inputs": [],
      "name": "isOwner",
      "outputs": [
        {
          "internalType": "bool",
          "name": "",
          "type": "bool"
        }
      ],
      "stateMutability": "view",
      "type": "function"
    },
    {
      "inputs": [],
      "name": "incrementNonce",
      "outputs": [],
      "stateMutability": "nonpayable",
      "type": "function"
    },
    {
      "inputs": [
        {
          "internalType": "bytes32",
          "name": "signedMessage",
          "type": "bytes32"
        },
        {
          "internalType": "uint8",
          "name": "sigV1",
          "type": "uint8"
        },
        {
          "internalType": "bytes32",
          "name": "sigR1",
          "type": "bytes32"
        },
        {
          "internalType": "bytes32",
          "name": "sigS1",
          "type": "bytes32"
        },
        {
          "internalType": "uint8",
          "name": "sigV2",
          "type": "uint8"
        },
        {
          "internalType": "bytes32",
          "name": "sigR2",
          "type": "bytes32"
        },
        {
          "internalType": "bytes32",
          "name": "sigS2",
          "type": "bytes32"
        },
        {
          "internalType": "uint8",
          "name": "sigV3",
          "type": "uint8"
        },
        {
          "internalType": "bytes32",
          "name": "sigR3",
          "type": "bytes32"
        },
        {
          "internalType": "bytes32",
          "name": "sigS3",
          "type": "bytes32"
        }
      ],
      "name": "mint",
      "outputs": [],
      "stateMutability": "nonpayable",
      "type": "function"
    },
    {
      "inputs": [
        {
          "internalType": "uint256",
          "name": "amount",
          "type": "uint256"
        },
        {
          "internalType": "bytes",
          "name": "data",
          "type": "bytes"
        }
      ],
      "name": "burn",
      "outputs": [],
      "stateMutability": "nonpayable",
      "type": "function"
    }
  ],
  "bytecode": "0x60806040526007805463ffffffff60a01b191690553480156200002157600080fd5b506040516200178138038062001781833981810160405260408110156200004757600080fd5b81019080805160405193929190846401000000008211156200006857600080fd5b9083019060208201858111156200007e57600080fd5b82516401000000008111828201881017156200009957600080fd5b82525081516020918201929091019080838360005b83811015620000c8578181015183820152602001620000ae565b50505050905090810190601f168015620000f65780820380516001836020036101000a031916815260200191505b50604052602001805160405193929190846401000000008211156200011a57600080fd5b9083019060208201858111156200013057600080fd5b82516401000000008111828201881017156200014b57600080fd5b82525081516020918201929091019080838360005b838110156200017a57818101518382015260200162000160565b50505050905090810190601f168015620001a85780820380516001836020036101000a031916815260200191505b50604052505082518391508290620001c890600390602085019062000264565b508051620001de90600490602084019062000264565b505060058054601260ff1990911617610100600160a81b0319167441afad17a0b0e4135022ccc448d7fce0c6469d1600179055505060068054735ac2f364482759c54c9a08b8a16f5723c8ed4cf06001600160a01b0319918216179091556007805473a357d59d38dd963d1930efb55e1a262b42c5374892169190911790555062000310565b828054600181600116156101000203166002900490600052602060002090601f0160209004810192826200029c5760008555620002e7565b82601f10620002b757805160ff1916838001178555620002e7565b82800160010185558215620002e7579182015b82811115620002e7578251825591602001919060010190620002ca565b50620002f5929150620002f9565b5090565b5b80821115620002f55760008155600101620002fa565b61146180620003206000396000f3fe608060405234801561001057600080fd5b50600436106101005760003560e01c806370a0823111610097578063a9059cbb11610066578063a9059cbb14610325578063dd62ed3e14610351578063fbb0eb8b1461037f578063fe9d9303146103a057610100565b806370a08231146102c35780638f32d59b146102e957806395d89b41146102f1578063a457c2d7146102f957610100565b806323b872dd116100d357806323b872dd1461023b578063313ce56714610271578063395093511461028f578063627cdcb9146102bb57610100565b806306fdde0314610105578063095ea7b3146101825780630e76c7a0146101c257806318160ddd14610221575b600080fd5b61010d61044d565b6040805160208082528351818301528351919283929083019185019080838360005b8381101561014757818101518382015260200161012f565b50505050905090810190601f1680156101745780820380516001836020036101000a031916815260200191505b509250505060405180910390f35b6101ae6004803603604081101561019857600080fd5b506001600160a01b0381351690602001356104e3565b604080519115158252519081900360200190f35b61021f60048036036101408110156101d957600080fd5b5080359060ff6020820135811691604081013591606082013591608081013582169160a08201359160c08101359160e08201351690610100810135906101200135610500565b005b6102296109a5565b60408051918252519081900360200190f35b6101ae6004803603606081101561025157600080fd5b506001600160a01b038135811691602081013590911690604001356109ab565b610279610a32565b6040805160ff9092168252519081900360200190f35b6101ae600480360360408110156102a557600080fd5b506001600160a01b038135169060200135610a3b565b61021f610a89565b610229600480360360208110156102d957600080fd5b50356001600160a01b0316610af8565b6101ae610b13565b61010d610b58565b6101ae6004803603604081101561030f57600080fd5b506001600160a01b038135169060200135610bb9565b6101ae6004803603604081101561033b57600080fd5b506001600160a01b038135169060200135610c21565b6102296004803603604081101561036757600080fd5b506001600160a01b0381358116916020013516610c35565b610387610c60565b6040805163ffffffff9092168252519081900360200190f35b61021f600480360360408110156103b657600080fd5b813591908101906040810160208201356401000000008111156103d857600080fd5b8201836020820111156103ea57600080fd5b8035906020019184600183028401116401000000008311171561040c57600080fd5b91908080601f016020809104026020016040519081016040528093929190818152602001838380828437600092019190915250929550610c73945050505050565b60038054604080516020601f60026000196101006001881615020190951694909404938401819004810282018101909252828152606093909290918301828280156104d95780601f106104ae576101008083540402835291602001916104d9565b820191906000526020600020905b8154815290600101906020018083116104bc57829003601f168201915b5050505050905090565b60006104f76104f0610d33565b8484610d37565b50600192915050565b610508610b13565b610549576040805162461bcd60e51b815260206004820152600d60248201526c26bab9ba1031329037bbb732b960991b604482015290519081900360640190fd5b600560019054906101000a90046001600160a01b03166001600160a01b031660018b60405160200180807f19457468657265756d205369676e6564204d6573736167653a0a333200000000815250601c01828152602001915050604051602081830303815290604052805190602001208b8b8b60405160008152602001604052604051808581526020018460ff1681526020018381526020018281526020019450505050506020604051602081039080840390855afa158015610610573d6000803e3d6000fd5b505050602060405103516001600160a01b03161461066e576040805162461bcd60e51b81526020600482015260166024820152754e6f7420617070726f766564206279206f776e65723160501b604482015290519081900360640190fd5b600654604080517f19457468657265756d205369676e6564204d6573736167653a0a333200000000602080830191909152603c8083018f905283518084039091018152605c83018085528151918301919091206000909152607c83018085525260ff8a16609c83015260bc820189905260dc820188905291516001600160a01b039093169260019260fc808401939192601f1981019281900390910190855afa15801561071f573d6000803e3d6000fd5b505050602060405103516001600160a01b03161461077d576040805162461bcd60e51b81526020600482015260166024820152752737ba1030b8383937bb32b210313c9037bbb732b91960511b604482015290519081900360640190fd5b600754604080517f19457468657265756d205369676e6564204d6573736167653a0a333200000000602080830191909152603c8083018f905283518084039091018152605c83018085528151918301919091206000909152607c83018085525260ff8716609c83015260bc820186905260dc820185905291516001600160a01b039093169260019260fc808401939192601f1981019281900390910190855afa15801561082e573d6000803e3d6000fd5b505050602060405103516001600160a01b03161461088c576040805162461bcd60e51b81526020600482015260166024820152754e6f7420617070726f766564206279206f776e65723360501b604482015290519081900360640190fd5b600754600160801b8b04906fffffffffffffffffffffffffffffffff808d16919083169063ffffffff808516600160a01b9092041614610906576040805162461bcd60e51b815260206004820152601060248201526f0dcdedcc6ca40daeae6e840dac2e8c6d60831b604482015290519081900360640190fd5b6007805463ffffffff600160a01b80830482166001019091160263ffffffff60a01b1990911617905560055461094b906001600160a01b036101009091041683610e23565b600554604080516101009092046001600160a01b031682526020820184905280517f30385c845b448a36257a6a1716e6ad2e1bc2cbe333cde1e69fe849ad6511adfe9281900390910190a150505050505050505050505050565b60025490565b60006109b8848484610f13565b610a28846109c4610d33565b610a2385604051806060016040528060288152602001611375602891396001600160a01b038a16600090815260016020526040812090610a02610d33565b6001600160a01b03168152602081019190915260400160002054919061106e565b610d37565b5060019392505050565b60055460ff1690565b60006104f7610a48610d33565b84610a238560016000610a59610d33565b6001600160a01b03908116825260208083019390935260409182016000908120918c168152925290205490611105565b610a91610b13565b610acc5760405162461bcd60e51b815260040180806020018281038252602381526020018061130a6023913960400191505060405180910390fd5b60078054600163ffffffff600160a01b808404821692909201160263ffffffff60a01b19909116179055565b6001600160a01b031660009081526020819052604090205490565b60055460009061010090046001600160a01b0316331480610b3e57506006546001600160a01b031633145b80610b5357506007546001600160a01b031633145b905090565b60048054604080516020601f60026000196101006001881615020190951694909404938401819004810282018101909252828152606093909290918301828280156104d95780601f106104ae576101008083540402835291602001916104d9565b60006104f7610bc6610d33565b84610a23856040518060600160405280602581526020016114076025913960016000610bf0610d33565b6001600160a01b03908116825260208083019390935260409182016000908120918d1681529252902054919061106e565b60006104f7610c2e610d33565b8484610f13565b6001600160a01b03918216600090815260016020908152604080832093909416825291909152205490565b600754600160a01b900463ffffffff1681565b610c7d3383611166565b7f1b0d1df39b95c18450406c31aa7c3c3fbafc15e3904d5994501abd24956f1cd333838360405180846001600160a01b0316815260200183815260200180602001828103825283818151815260200191508051906020019080838360005b83811015610cf3578181015183820152602001610cdb565b50505050905090810190601f168015610d205780820380516001836020036101000a031916815260200191505b5094505050505060405180910390a15050565b3390565b6001600160a01b038316610d7c5760405162461bcd60e51b81526004018080602001828103825260248152602001806113e36024913960400191505060405180910390fd5b6001600160a01b038216610dc15760405162461bcd60e51b815260040180806020018281038252602281526020018061132d6022913960400191505060405180910390fd5b6001600160a01b03808416600081815260016020908152604080832094871680845294825291829020859055815185815291517f8c5be1e5ebec7d5bd14f71427d1e84f3dd0314c0f7b2291e5b200ac8c7c3b9259281900390910190a3505050565b6001600160a01b038216610e7e576040805162461bcd60e51b815260206004820152601f60248201527f45524332303a206d696e7420746f20746865207a65726f206164647265737300604482015290519081900360640190fd5b610e8a60008383611262565b600254610e979082611105565b6002556001600160a01b038216600090815260208190526040902054610ebd9082611105565b6001600160a01b0383166000818152602081815260408083209490945583518581529351929391927fddf252ad1be2c89b69c2b068fc378daa952ba7f163c4a11628f55a4df523b3ef9281900390910190a35050565b6001600160a01b038316610f585760405162461bcd60e51b81526004018080602001828103825260258152602001806113be6025913960400191505060405180910390fd5b6001600160a01b038216610f9d5760405162461bcd60e51b81526004018080602001828103825260238152602001806112c56023913960400191505060405180910390fd5b610fa8838383611262565b610fe58160405180606001604052806026815260200161134f602691396001600160a01b038616600090815260208190526040902054919061106e565b6001600160a01b0380851660009081526020819052604080822093909355908416815220546110149082611105565b6001600160a01b038084166000818152602081815260409182902094909455805185815290519193928716927fddf252ad1be2c89b69c2b068fc378daa952ba7f163c4a11628f55a4df523b3ef92918290030190a3505050565b600081848411156110fd5760405162461bcd60e51b81526004018080602001828103825283818151815260200191508051906020019080838360005b838110156110c25781810151838201526020016110aa565b50505050905090810190601f1680156110ef5780820380516001836020036101000a031916815260200191505b509250505060405180910390fd5b505050900390565b60008282018381101561115f576040805162461bcd60e51b815260206004820152601b60248201527f536166654d6174683a206164646974696f6e206f766572666c6f770000000000604482015290519081900360640190fd5b9392505050565b6001600160a01b0382166111ab5760405162461bcd60e51b815260040180806020018281038252602181526020018061139d6021913960400191505060405180910390fd5b6111b782600083611262565b6111f4816040518060600160405280602281526020016112e8602291396001600160a01b038516600090815260208190526040902054919061106e565b6001600160a01b03831660009081526020819052604090205560025461121a9082611267565b6002556040805182815290516000916001600160a01b038516917fddf252ad1be2c89b69c2b068fc378daa952ba7f163c4a11628f55a4df523b3ef9181900360200190a35050565b505050565b6000828211156112be576040805162461bcd60e51b815260206004820152601e60248201527f536166654d6174683a207375627472616374696f6e206f766572666c6f770000604482015290519081900360640190fd5b5090039056fe45524332303a207472616e7366657220746f20746865207a65726f206164647265737345524332303a206275726e20616d6f756e7420657863656564732062616c616e63654f6e6c79206f776e6572732063616e20696e6372656d656e7420746865206e6f6e636545524332303a20617070726f766520746f20746865207a65726f206164647265737345524332303a207472616e7366657220616d6f756e7420657863656564732062616c616e636545524332303a207472616e7366657220616d6f756e74206578636565647320616c6c6f77616e636545524332303a206275726e2066726f6d20746865207a65726f206164647265737345524332303a207472616e736665722066726f6d20746865207a65726f206164647265737345524332303a20617070726f76652066726f6d20746865207a65726f206164647265737345524332303a2064656372656173656420616c6c6f77616e63652062656c6f77207a65726fa26469706673582212204142c8d2568bbd0072877c7ea16e01c8c65e7e10b4b879bcea6ad93a4256e83264736f6c63430007060033",
  "immutableReferences": {},
  "source": "// SPDX-License-Identifier: UNLICENSED\npragma solidity >=0.6.0 <0.8.0;\n\n//import \"./lib/openzeppelin/contracts/token/ERC20/ERC20.sol\";\nimport \"../node_modules/@openzeppelin/contracts/token/ERC20/ERC20.sol\";\n\ncontract SaitoToken is ERC20 {\n  address owner1;\n  address owner2;\n  address owner3;\n  uint32 public mintingNonce = 0;\n  \n  constructor (string memory name_, string memory symbol_) ERC20(name_, symbol_) {\n    // The tests will replace these keys in the contract binary with the test owner keys.\n    // These must be replaced with the real owner keys during deployment, however this will\n    // also cause the tests to break, so please do not commit changes to these.\n    owner1 = 0x41Afad17a0B0e4135022CcC448D7FCe0C6469d16;\n    owner2 = 0x5aC2F364482759C54c9A08B8a16F5723C8eD4Cf0;\n    owner3 = 0xA357D59D38dD963d1930efb55e1a262b42c53748;\n  }\n  function isOwner() public view returns (bool) {\n    return msg.sender == owner1 || msg.sender == owner2 || msg.sender == owner3;\n  }\n  \n  function incrementNonce() external {\n    require(isOwner(), \"Only owners can increment the nonce\");\n    mintingNonce++;\n  }\n  \n  /**\n  * Creates new tokens. Can only be called by one of the three owners. Includes\n  * signatures from each of the 3 owners.\n  * The signed messages is a bytes32(equivalent to uint256), which includes the\n  * nonce and the amount intended to be minted. The network ID is not included,\n  * which means owner keys cannot be shared across networks because of the\n  * possibility of replay. The lower 128 bits of the signedMessage contain\n  * the amount to be minted, and the upper 128 bits contain the nonce.\n  */\n   \n  function mint(bytes32 signedMessage, uint8 sigV1, bytes32 sigR1, bytes32 sigS1, uint8 sigV2, bytes32 sigR2, bytes32 sigS2, uint8 sigV3, bytes32 sigR3, bytes32 sigS3) external {\n    require(isOwner(), \"Must be owner\");\n    require(ecrecover(keccak256(abi.encodePacked(\"\\x19Ethereum Signed Message:\\n32\", signedMessage)), sigV1, sigR1, sigS1) == owner1, \"Not approved by owner1\");\n    require(ecrecover(keccak256(abi.encodePacked(\"\\x19Ethereum Signed Message:\\n32\", signedMessage)), sigV2, sigR2, sigS2) == owner2, \"Not approved by owner2\");\n    require(ecrecover(keccak256(abi.encodePacked(\"\\x19Ethereum Signed Message:\\n32\", signedMessage)), sigV3, sigR3, sigS3) == owner3, \"Not approved by owner3\");\n    // cast message to a uint256\n    uint256 signedMessageUint256 = uint256(signedMessage);\n    // bitwise-and the lower 128 bits of message to get the amount\n    uint256 amount = signedMessageUint256 & (2**128-1);\n    // right-shift the message by 128 bits to get the nonce in the correct position\n    signedMessageUint256 = signedMessageUint256 / (2**128);\n    // bitwise-and the message by 128 bits to get the nonce\n    uint32 nonce = uint32(signedMessageUint256 & (2**128-1));\n    require(nonce == mintingNonce, \"nonce must match\");\n    mintingNonce += 1;\n    _mint(owner1, amount);\n    emit Minted(owner1, amount);\n  }\n  \n  function burn(uint256 amount, bytes memory data) external {\n    super._burn(msg.sender, amount);\n    emit Burned(msg.sender, amount, data);\n  }\n  event Minted(address receiver, uint256 amount);\n  event Burned(address from, uint256 amount, bytes data);\n  //event Minted(address indexed to, uint256 amount);\n  //event Burned(address indexed from, uint256 amount, bytes data);\n}\n",
  "sourcePath": "/home/clay/projects/saito-evm-token/contracts/SaitoToken.sol",
  "compiler": {
    "name": "solc",
    "version": "0.7.6+commit.7338295f.Emscripten.clang"
  },
  "schemaVersion": "3.3.4",
  "updatedAt": "2021-04-16T14:36:23.490Z",
  "devdoc": {
    "kind": "dev",
    "methods": {
      "allowance(address,address)": {
        "details": "See {IERC20-allowance}."
      },
      "approve(address,uint256)": {
        "details": "See {IERC20-approve}. Requirements: - `spender` cannot be the zero address."
      },
      "balanceOf(address)": {
        "details": "See {IERC20-balanceOf}."
      },
      "decimals()": {
        "details": "Returns the number of decimals used to get its user representation. For example, if `decimals` equals `2`, a balance of `505` tokens should be displayed to a user as `5,05` (`505 / 10 ** 2`). Tokens usually opt for a value of 18, imitating the relationship between Ether and Wei. This is the value {ERC20} uses, unless {_setupDecimals} is called. NOTE: This information is only used for _display_ purposes: it in no way affects any of the arithmetic of the contract, including {IERC20-balanceOf} and {IERC20-transfer}."
      },
      "decreaseAllowance(address,uint256)": {
        "details": "Atomically decreases the allowance granted to `spender` by the caller. This is an alternative to {approve} that can be used as a mitigation for problems described in {IERC20-approve}. Emits an {Approval} event indicating the updated allowance. Requirements: - `spender` cannot be the zero address. - `spender` must have allowance for the caller of at least `subtractedValue`."
      },
      "increaseAllowance(address,uint256)": {
        "details": "Atomically increases the allowance granted to `spender` by the caller. This is an alternative to {approve} that can be used as a mitigation for problems described in {IERC20-approve}. Emits an {Approval} event indicating the updated allowance. Requirements: - `spender` cannot be the zero address."
      },
      "name()": {
        "details": "Returns the name of the token."
      },
      "symbol()": {
        "details": "Returns the symbol of the token, usually a shorter version of the name."
      },
      "totalSupply()": {
        "details": "See {IERC20-totalSupply}."
      },
      "transfer(address,uint256)": {
        "details": "See {IERC20-transfer}. Requirements: - `recipient` cannot be the zero address. - the caller must have a balance of at least `amount`."
      },
      "transferFrom(address,address,uint256)": {
        "details": "See {IERC20-transferFrom}. Emits an {Approval} event indicating the updated allowance. This is not required by the EIP. See the note at the beginning of {ERC20}. Requirements: - `sender` and `recipient` cannot be the zero address. - `sender` must have a balance of at least `amount`. - the caller must have allowance for ``sender``'s tokens of at least `amount`."
      }
    },
    "version": 1
  },
  "userdoc": {
    "kind": "user",
    "methods": {
      "mint(bytes32,uint8,bytes32,bytes32,uint8,bytes32,bytes32,uint8,bytes32,bytes32)": {
        "notice": "Creates new tokens. Can only be called by one of the three owners. Includes signatures from each of the 3 owners. The signed messages is a bytes32(equivalent to uint256), which includes the nonce and the amount intended to be minted. The network ID is not included, which means owner keys cannot be shared across networks because of the possibility of replay. The lower 128 bits of the signedMessage contain the amount to be minted, and the upper 128 bits contain the nonce."
      }
    },
    "version": 1
  }
}